{
  "_format": "hh-sol-artifact-1",
  "contractName": "Certificate",
  "sourceName": "contracts/Certificate.sol",
  "abi": [
    {
      "inputs": [],
      "stateMutability": "nonpayable",
      "type": "constructor"
    },
    {
      "anonymous": false,
      "inputs": [
        {
          "indexed": false,
          "internalType": "uint256",
          "name": "id",
          "type": "uint256"
        },
        {
          "indexed": false,
          "internalType": "string",
          "name": "hash",
          "type": "string"
        },
        {
          "indexed": false,
          "internalType": "string",
          "name": "message",
          "type": "string"
        },
        {
          "indexed": false,
          "internalType": "string",
          "name": "category",
          "type": "string"
        },
        {
          "indexed": false,
          "internalType": "address",
          "name": "author",
          "type": "address"
        },
        {
          "indexed": false,
          "internalType": "address",
          "name": "holder",
          "type": "address"
        },
        {
          "indexed": false,
          "internalType": "uint256",
          "name": "timestamp",
          "type": "uint256"
        }
      ],
      "name": "CertificationCreated",
      "type": "event"
    },
    {
      "anonymous": false,
      "inputs": [
        {
          "indexed": false,
          "internalType": "uint256",
          "name": "id",
          "type": "uint256"
        },
        {
          "indexed": false,
          "internalType": "address",
          "name": "buyer",
          "type": "address"
        },
        {
          "indexed": false,
          "internalType": "address",
          "name": "holder",
          "type": "address"
        },
        {
          "indexed": false,
          "internalType": "string",
          "name": "message",
          "type": "string"
        },
        {
          "indexed": false,
          "internalType": "uint256",
          "name": "timestamp",
          "type": "uint256"
        }
      ],
      "name": "CoffeeBought",
      "type": "event"
    },
    {
      "inputs": [
        {
          "internalType": "address",
          "name": "_holder",
          "type": "address"
        },
        {
          "internalType": "string",
          "name": "_message",
          "type": "string"
        }
      ],
      "name": "buyCoffee",
      "outputs": [],
      "stateMutability": "payable",
      "type": "function"
    },
    {
      "inputs": [
        {
          "internalType": "uint256",
          "name": "",
          "type": "uint256"
        }
      ],
      "name": "certification",
      "outputs": [
        {
          "internalType": "uint256",
          "name": "id",
          "type": "uint256"
        },
        {
          "internalType": "string",
          "name": "hash",
          "type": "string"
        },
        {
          "internalType": "string",
          "name": "message",
          "type": "string"
        },
        {
          "internalType": "string",
          "name": "category",
          "type": "string"
        },
        {
          "internalType": "address",
          "name": "author",
          "type": "address"
        },
        {
          "internalType": "address",
          "name": "holder",
          "type": "address"
        },
        {
          "internalType": "uint256",
          "name": "timestamp",
          "type": "uint256"
        }
      ],
      "stateMutability": "view",
      "type": "function"
    },
    {
      "inputs": [],
      "name": "certificationCount",
      "outputs": [
        {
          "internalType": "uint256",
          "name": "_value",
          "type": "uint256"
        }
      ],
      "stateMutability": "view",
      "type": "function"
    },
    {
      "inputs": [],
      "name": "coffeePrice",
      "outputs": [
        {
          "internalType": "uint256",
          "name": "",
          "type": "uint256"
        }
      ],
      "stateMutability": "view",
      "type": "function"
    },
    {
      "inputs": [],
      "name": "coffeesCount",
      "outputs": [
        {
          "internalType": "uint256",
          "name": "_value",
          "type": "uint256"
        }
      ],
      "stateMutability": "view",
      "type": "function"
    },
    {
      "inputs": [
        {
          "internalType": "string",
          "name": "_message",
          "type": "string"
        },
        {
          "internalType": "string",
          "name": "_hash",
          "type": "string"
        },
        {
          "internalType": "string",
          "name": "_category",
          "type": "string"
        },
        {
          "internalType": "address",
          "name": "_holder",
          "type": "address"
        }
      ],
      "name": "createCertification",
      "outputs": [],
      "stateMutability": "nonpayable",
      "type": "function"
    },
    {
      "inputs": [],
      "name": "name",
      "outputs": [
        {
          "internalType": "string",
          "name": "",
          "type": "string"
        }
      ],
      "stateMutability": "view",
      "type": "function"
    }
  ],
  "bytecode": "0x60806040526040518060400160405280600c81526020017f436572746966696361746520000000000000000000000000000000000000000081525060009080519060200190620000519291906200017d565b503480156200005f57600080fd5b50620000ab6040518060400160405280601b81526020017f4465706c6f79696e672061204365727469666963617465202e2e2e0000000000815250620000b160201b6200098e1760201c565b6200035a565b6200015181604051602401620000c89190620002d1565b6040516020818303038152906040527f41304fac000000000000000000000000000000000000000000000000000000007bffffffffffffffffffffffffffffffffffffffffffffffffffffffff19166020820180517bffffffffffffffffffffffffffffffffffffffffffffffffffffffff83818316178352505050506200015460201b60201c565b50565b60008151905060006a636f6e736f6c652e6c6f679050602083016000808483855afa5050505050565b8280546200018b9062000324565b90600052602060002090601f016020900481019282620001af5760008555620001fb565b82601f10620001ca57805160ff1916838001178555620001fb565b82800160010185558215620001fb579182015b82811115620001fa578251825591602001919060010190620001dd565b5b5090506200020a91906200020e565b5090565b5b80821115620002295760008160009055506001016200020f565b5090565b600081519050919050565b600082825260208201905092915050565b60005b83811015620002695780820151818401526020810190506200024c565b8381111562000279576000848401525b50505050565b6000601f19601f8301169050919050565b60006200029d826200022d565b620002a9818562000238565b9350620002bb81856020860162000249565b620002c6816200027f565b840191505092915050565b60006020820190508181036000830152620002ed818462000290565b905092915050565b7f4e487b7100000000000000000000000000000000000000000000000000000000600052602260045260246000fd5b600060028204905060018216806200033d57607f821691505b60208210811415620003545762000353620002f5565b5b50919050565b611375806200036a6000396000f3fe6080604052600436106100705760003560e01c806344ae465e1161004e57806344ae465e146100f65780637d28952814610112578063c55699c414610155578063d8cf42671461018057610070565b806306fdde03146100755780631c8a4038146100a05780632d852b1d146100cb575b600080fd5b34801561008157600080fd5b5061008a6101a9565b6040516100979190610bb0565b60405180910390f35b3480156100ac57600080fd5b506100b5610237565b6040516100c29190610beb565b60405180910390f35b3480156100d757600080fd5b506100e0610242565b6040516100ed9190610beb565b60405180910390f35b610110600480360381019061010b9190610dad565b61024e565b005b34801561011e57600080fd5b5061013960048036038101906101349190610e35565b61045c565b60405161014c9796959493929190610e71565b60405180910390f35b34801561016157600080fd5b5061016a610676565b6040516101779190610beb565b60405180910390f35b34801561018c57600080fd5b506101a760048036038101906101a29190610ef5565b610682565b005b600080546101b690610fdf565b80601f01602080910402602001604051908101604052809291908181526020018280546101e290610fdf565b801561022f5780601f106102045761010080835404028352916020019161022f565b820191906000526020600020905b81548152906001019060200180831161021257829003601f168201915b505050505081565b662386f26fc1000081565b60028060000154905081565b6000815111610292576040517f08c379a00000000000000000000000000000000000000000000000000000000081526004016102899061105d565b60405180910390fd5b600073ffffffffffffffffffffffffffffffffffffffff163373ffffffffffffffffffffffffffffffffffffffff161415610302576040517f08c379a00000000000000000000000000000000000000000000000000000000081526004016102f9906110c9565b60405180910390fd5b662386f26fc10000341461034b576040517f08c379a00000000000000000000000000000000000000000000000000000000081526004016103429061115b565b60405180910390fd5b8173ffffffffffffffffffffffffffffffffffffffff163373ffffffffffffffffffffffffffffffffffffffff1614156103ba576040517f08c379a00000000000000000000000000000000000000000000000000000000081526004016103b1906111ed565b60405180910390fd5b6103c46002610a27565b60006103d06002610a3d565b90508273ffffffffffffffffffffffffffffffffffffffff166108fc349081150290604051600060405180830381858888f19350505050158015610418573d6000803e3d6000fd5b507e761a47b226af421960fb95c4445dce72063ef3b5c531982d93a9fe2d89b6cb813385854260405161044f95949392919061120d565b60405180910390a1505050565b600360205280600052604060002060009150905080600001549080600101805461048590610fdf565b80601f01602080910402602001604051908101604052809291908181526020018280546104b190610fdf565b80156104fe5780601f106104d3576101008083540402835291602001916104fe565b820191906000526020600020905b8154815290600101906020018083116104e157829003601f168201915b50505050509080600201805461051390610fdf565b80601f016020809104026020016040519081016040528092919081815260200182805461053f90610fdf565b801561058c5780601f106105615761010080835404028352916020019161058c565b820191906000526020600020905b81548152906001019060200180831161056f57829003601f168201915b5050505050908060030180546105a190610fdf565b80601f01602080910402602001604051908101604052809291908181526020018280546105cd90610fdf565b801561061a5780601f106105ef5761010080835404028352916020019161061a565b820191906000526020600020905b8154815290600101906020018083116105fd57829003601f168201915b5050505050908060040160009054906101000a900473ffffffffffffffffffffffffffffffffffffffff16908060050160009054906101000a900473ffffffffffffffffffffffffffffffffffffffff16908060060154905087565b60018060000154905081565b60008451116106c6576040517f08c379a00000000000000000000000000000000000000000000000000000000081526004016106bd9061105d565b60405180910390fd5b600083511161070a576040517f08c379a0000000000000000000000000000000000000000000000000000000008152600401610701906112b3565b60405180910390fd5b600082511161074e576040517f08c379a00000000000000000000000000000000000000000000000000000000081526004016107459061131f565b60405180910390fd5b600073ffffffffffffffffffffffffffffffffffffffff163373ffffffffffffffffffffffffffffffffffffffff1614156107be576040517f08c379a00000000000000000000000000000000000000000000000000000000081526004016107b5906110c9565b60405180910390fd5b6107c86001610a27565b60006107d46001610a3d565b90506040518060e001604052808281526020018581526020018681526020018481526020013373ffffffffffffffffffffffffffffffffffffffff1681526020018373ffffffffffffffffffffffffffffffffffffffff168152602001428152506003600083815260200190815260200160002060008201518160000155602082015181600101908051906020019061086e929190610a74565b50604082015181600201908051906020019061088b929190610a74565b5060608201518160030190805190602001906108a8929190610a74565b5060808201518160040160006101000a81548173ffffffffffffffffffffffffffffffffffffffff021916908373ffffffffffffffffffffffffffffffffffffffff16021790555060a08201518160050160006101000a81548173ffffffffffffffffffffffffffffffffffffffff021916908373ffffffffffffffffffffffffffffffffffffffff16021790555060c082015181600601559050507fa9d4bfc1960a8f7b86d7e3c38ab3a4d4773acd531e5442cf4d50761e0be13c078185878633874260405161097f9796959493929190610e71565b60405180910390a15050505050565b610a24816040516024016109a29190610bb0565b6040516020818303038152906040527f41304fac000000000000000000000000000000000000000000000000000000007bffffffffffffffffffffffffffffffffffffffffffffffffffffffff19166020820180517bffffffffffffffffffffffffffffffffffffffffffffffffffffffff8381831617835250505050610a4b565b50565b6001816000016000828254019250508190555050565b600081600001549050919050565b60008151905060006a636f6e736f6c652e6c6f679050602083016000808483855afa5050505050565b828054610a8090610fdf565b90600052602060002090601f016020900481019282610aa25760008555610ae9565b82601f10610abb57805160ff1916838001178555610ae9565b82800160010185558215610ae9579182015b82811115610ae8578251825591602001919060010190610acd565b5b509050610af69190610afa565b5090565b5b80821115610b13576000816000905550600101610afb565b5090565b600081519050919050565b600082825260208201905092915050565b60005b83811015610b51578082015181840152602081019050610b36565b83811115610b60576000848401525b50505050565b6000601f19601f8301169050919050565b6000610b8282610b17565b610b8c8185610b22565b9350610b9c818560208601610b33565b610ba581610b66565b840191505092915050565b60006020820190508181036000830152610bca8184610b77565b905092915050565b6000819050919050565b610be581610bd2565b82525050565b6000602082019050610c006000830184610bdc565b92915050565b6000604051905090565b600080fd5b600080fd5b600073ffffffffffffffffffffffffffffffffffffffff82169050919050565b6000610c4582610c1a565b9050919050565b610c5581610c3a565b8114610c6057600080fd5b50565b600081359050610c7281610c4c565b92915050565b600080fd5b600080fd5b7f4e487b7100000000000000000000000000000000000000000000000000000000600052604160045260246000fd5b610cba82610b66565b810181811067ffffffffffffffff82111715610cd957610cd8610c82565b5b80604052505050565b6000610cec610c06565b9050610cf88282610cb1565b919050565b600067ffffffffffffffff821115610d1857610d17610c82565b5b610d2182610b66565b9050602081019050919050565b82818337600083830152505050565b6000610d50610d4b84610cfd565b610ce2565b905082815260208101848484011115610d6c57610d6b610c7d565b5b610d77848285610d2e565b509392505050565b600082601f830112610d9457610d93610c78565b5b8135610da4848260208601610d3d565b91505092915050565b60008060408385031215610dc457610dc3610c10565b5b6000610dd285828601610c63565b925050602083013567ffffffffffffffff811115610df357610df2610c15565b5b610dff85828601610d7f565b9150509250929050565b610e1281610bd2565b8114610e1d57600080fd5b50565b600081359050610e2f81610e09565b92915050565b600060208284031215610e4b57610e4a610c10565b5b6000610e5984828501610e20565b91505092915050565b610e6b81610c3a565b82525050565b600060e082019050610e86600083018a610bdc565b8181036020830152610e988189610b77565b90508181036040830152610eac8188610b77565b90508181036060830152610ec08187610b77565b9050610ecf6080830186610e62565b610edc60a0830185610e62565b610ee960c0830184610bdc565b98975050505050505050565b60008060008060808587031215610f0f57610f0e610c10565b5b600085013567ffffffffffffffff811115610f2d57610f2c610c15565b5b610f3987828801610d7f565b945050602085013567ffffffffffffffff811115610f5a57610f59610c15565b5b610f6687828801610d7f565b935050604085013567ffffffffffffffff811115610f8757610f86610c15565b5b610f9387828801610d7f565b9250506060610fa487828801610c63565b91505092959194509250565b7f4e487b7100000000000000000000000000000000000000000000000000000000600052602260045260246000fd5b60006002820490506001821680610ff757607f821691505b6020821081141561100b5761100a610fb0565b5b50919050565b7f4d657373616765206d757374206e6f7420626520656d70747900000000000000600082015250565b6000611047601983610b22565b915061105282611011565b602082019050919050565b600060208201905081810360008301526110768161103a565b9050919050565b7f53656e646572206d757374206e6f7420626520656d7074790000000000000000600082015250565b60006110b3601883610b22565b91506110be8261107d565b602082019050919050565b600060208201905081810360008301526110e2816110a6565b9050919050565b7f436f66666565207072696365206d75737420626520302e30303031206574686560008201527f7200000000000000000000000000000000000000000000000000000000000000602082015250565b6000611145602183610b22565b9150611150826110e9565b604082019050919050565b6000602082019050818103600083015261117481611138565b9050919050565b7f596f752063616e27742062757920636f6666656520666f7220796f757273656c60008201527f6600000000000000000000000000000000000000000000000000000000000000602082015250565b60006111d7602183610b22565b91506111e28261117b565b604082019050919050565b60006020820190508181036000830152611206816111ca565b9050919050565b600060a0820190506112226000830188610bdc565b61122f6020830187610e62565b61123c6040830186610e62565b818103606083015261124e8185610b77565b905061125d6080830184610bdc565b9695505050505050565b7f48617368206d757374206e6f7420626520656d70747900000000000000000000600082015250565b600061129d601683610b22565b91506112a882611267565b602082019050919050565b600060208201905081810360008301526112cc81611290565b9050919050565b7f43617465676f7279206d757374206e6f7420626520656d707479000000000000600082015250565b6000611309601a83610b22565b9150611314826112d3565b602082019050919050565b60006020820190508181036000830152611338816112fc565b905091905056fea2646970667358221220f8df46fe603e64a9a7566d33b15e84e6e0cd81853a90227f66e969bacb9ebef064736f6c63430008090033",
  "linkReferences": {},
  "deployedLinkReferences": {}
}